:020000040800F2
:100000001845002091010008990100089B01000893
:100010009D0100089F010008A101000800000000E8
:10002000000000000000000000000000A301000824
:10003000A501000800000000A7010008A9010008B0
:10004000AB010008AB010008AB010008AB010008E0
:10005000AB010008AB010008AB010008AB010008D0
:10006000AB010008AB010008AB010008AB010008C0
:10007000AB010008AB010008AB010008AB010008B0
:10008000AB010008AB010008AB010008AB010008A0
:10009000AB010008AB010008AB010008AB01000890
:1000A000AB010008C9200008AB010008AB01000843
:1000B000D9200008E5200008F5200008AB01000861
:1000C000AB010008AB010008AB010008AB01000860
:1000D000AB010008AB010008AB010008AB01000850
:1000E000AB010008AB010008AB01000800F002F80A
:1000F00000F03FF80AA090E8000C82448344AAF183
:100100000107DA4501D100F034F8AFF2090EBAE880
:100110000F0013F0010F18BFFB1A43F0010318473B
:1001200098560000B8560000103A24BF78C878C12D
:10013000FAD8520724BF30C830C144BF04680C60ED
:10014000704700000023002400250026103A28BF35
:1001500078C1FBD8520728BF30C148BF0B60704739
:10016000642900F07D80002070471FB51FBD10B5C9
:1001700010BD00F071F91146FFF7F7FF02F0A4FE81
:1001800000F08FF903B4FFF7F2FF03BC00F092F91F
:100190000948804709480047FEE7FEE7FEE7FEE71B
:1001A000FEE7FEE7FEE7FEE7FEE7FEE70448054957
:1001B000054A064B70470000291E0008ED000008A4
:1001C00018050020184500201815002018150020DB
:1001D0000FB41CB5074B06AA7B44694600900598EE
:1001E00000F019F90020694600F028F91CBC5DF800
:1001F00014FB0000610200002DE9F0410E460446A8
:10020000002020622046E168884730B3252805D0C9
:10021000D4E901219047206A401CF2E7E1682046BA
:1002200000278847050018D0A5F14100192802D8F9
:1002300020354FF400673246294620462760FFF7F5
:100240008FFF40B1012804D0F61D26F007060836BE
:10025000D8E7361DD6E72846DAE7206ABDE8F08100
:100260002DE9F0410646002410687529314616A58F
:1002700010D0AFF30080002802DA404213A507E057
:1002800031688A0701D512A502E0490704D511A5F6
:10029000012401E0AFF3008000210A2206F12407C7
:1002A00009E0B0FBF2FCB0FBF2F302FB1C003030C3
:1002B00078541846491C0028F3D123462A46304674
:1002C000BDE8F04100F048B8000000002D0000003B
:1002D0002B0000002000000010B5203AC0F00B8079
:1002E000B1E81850203AA0E81850B1E81850A0E83A
:1002F0001850BFF4F5AF5FEA027C24BFB1E8185094
:10030000A0E8185044BF18C918C0BDE810405FEA03
:10031000827C24BF51F8043B40F8043B08BF70477F
:10032000D20728BF31F8023B48BF11F8012B28BF84
:1003300020F8023B48BF00F8012B70477047704718
:10034000704710B500F080F8006810BD10B5044685
:1003500000F07AF8046010BD2DE9F0470D4699468B
:100360009246044600F124080168880604D5E06935
:1003700021F01001216000E00120A84201DD471BAF
:1003800000E00027A1697A1902EB0900081AA061B0
:100390002078C00602D42046AFF30080002608E093
:1003A000D4E901211AF806009047206A401C761C07
:1003B00020624E45F4DB2078C0060AD52046AFF314
:1003C000008006E0D4E9012130209047206A401CDB
:1003D0002062381EA7F10107F4DC07E0D4E901210F
:1003E00018F805009047206A401C2062281EA5F1DD
:1003F0000105F3DC2046AFF300802078000602D52B
:100400000220BDE8F0870120FBE7000001694A1CDB
:1004100002610878704700B58FB0CDE90131002145
:10042000059105497944CDE9031011466846FFF767
:10043000E3FE0FB000BD0000E5FFFFFF0A6802F811
:10044000010B0A607047000000487047B4040020A8
:1004500000487047B40400207546FFF7F9FFAE4628
:1004600005006946534620F00700854618B020B5C0
:10047000FFF79CFEBDE820404FF000064FF000075C
:100480004FF000084FF0000B21F00701AC46ACE83C
:10049000C009ACE8C009ACE8C009ACE8C0098D46A9
:1004A000704710B50446AFF300802046BDE8104009
:1004B000FFF768BE01491820ABBEFEE72600020028
:1004C00070472DE9F0410246002500260020002358
:1004D0000024002791F803C00CF00F0591F803C029
:1004E0000CF0100CBCF1000F03D091F802C04CEAE4
:1004F000050591F800C0BCF1000F31D01468002050
:100500002BE04FF0010C0CFA00F3B1F800C00CEA3C
:1005100003069E4220D183004FF00F0C0CFA03F724
:10052000BC4305FA03FC4CEA040491F803C0BCF197
:10053000280F06D14FF0010C0CFA00FCC2F814C0D1
:100540000AE091F803C0BCF1480F05D14FF0010C4F
:100550000CFA00FCC2F810C0401C0828D1D314606B
:10056000B1F800C0BCF1FF0F34DD546800202EE06C
:1005700000F1080C4FF0010808FA0CF3B1F800C0C4
:100580000CEA03069E4221D183004FF00F0C0CFAB7
:1005900003F7BC4305FA03FC4CEA040491F803C0DA
:1005A000BCF1280F05D100F1080C08FA0CF8C2F8CC
:1005B000148091F803C0BCF1480F07D100F1080C7A
:1005C0004FF0010808FA0CF8C2F81080401C082807
:1005D000CED35460BDE8F081F0B50A460023002474
:1005E0000021002500F00046B6F1004F02D11D4E5B
:1005F000F16901E01B4E7168C0F3034583B200F45A
:100600004016B6F5401F08D121F07061154E76688E
:1006100026F07066134F7E6012E000F48016B6F587
:10062000801F06D1032606FA05F4A14341F070614C
:1006300006E0460D360103FA06F6B14341F070615B
:1006400022B1460D360103FA06F6314300F00046AA
:10065000B6F1004F02D1034EF16101E0014E71602D
:10066000F0BD00000000014030B58BB0044694F8A6
:100670002800052871D2DFE800F003233F71FD0058
:10068000C748216801600146096841608088218966
:10069000084400B2C24988800846C188608908447D
:1006A00001B2BF48C18094F82400BE49096860F3D4
:1006B0000001BC4801600168B94800F095FB3BE1CE
:1006C000B94821680160A168416094F82400B549E7
:1006D000096860F30001B348016094F82400410800
:1006E000B048006861F34100AE49086008460168FF
:1006F000AD4800F0ABFC1FE1B4F9080000EBD0718D
:10070000228802EB610109B2A84A1180B4F90A00FB
:1007100000EBD071628802EB610109B2A34A5180FB
:10072000B4F9080000EBD0714910918094F82400CE
:100730009C49096860F300019A48016094F824001C
:1007400041089848006861F34100964908600846EE
:100750000168104600F096F9EEE0ECE094F8240011
:10076000C0F3C00000285CD0B4F9080000EBD071E1
:1007700049108E4A9180208811468988084400B229
:100780001146088060888988084400B21146488074
:1007900094F824008349096860F3000181480160EE
:1007A00094F8240041087F48006861F341007D49C6
:1007B000086008460168104600F064F920887A490C
:1007C00008807A484088488020898880608921890B
:1007D000401A01B27448C18094F824007149096834
:1007E00060F300016F48016094F8240041086D48EF
:1007F000006861F341006B490860084601686A4877
:1008000000F024FC61886089084468498988401A9E
:1008100000B26649488063480168644800F032F9D4
:100820005EE0B4F90A0000EBD07149105F4A918094
:10083000208811468988084400B2114608806088E3
:100840008988084400B21146488094F8240055492C
:10085000096860F300015348016094F824004108DE
:100860005048006861F341004E490860084601683D
:10087000104600E035E000F005F94C4800884A4990
:1008800008806088488021896089081A00B246493A
:10089000888061894448C18094F8240041490968EE
:1008A00060F300013F48016094F8240041083D488E
:1008B000006861F341003B490860084601683A4816
:1008C00000F0C4FB20882189084438498988401AEF
:1008D00000B23649088033480168344800F0D2F845
:1008E0002AE060883249488000251EE0B4F90010F3
:1008F00094F82400C0F30310083005FB001000B288
:100900002B49088004F11400405D40B2087194F84E
:1009100024002449096860F300012248016001684D
:10092000234800F0EDFB681CC5B204F11400405DE3
:100930000028DBD100E000BF00BF206970B30025B4
:1009400027E0206950F825102C226846FFF7C4FCE8
:10095000BDF800002188084400B2ADF80000BDF8E1
:1009600002006188084400B2ADF80200BDF804003E
:10097000A188084400B2ADF80400BDF80610E08874
:10098000084401B2ADF806106846FFF76DFE681C1A
:10099000C5B2206950F825000028D2D10BB030BD77
:1009A0001C00002038000020240000202C00002023
:1009B0003200002038B504460948806921680843A0
:1009C000074988610748006800902089ADF8000059
:1009D000A07A8DF8030069466068FFF772FD38BDA4
:1009E00000100240AC4E000838B504460D460D48D4
:1009F0008069216841F0010108430A4988610121A9
:100A00002846FFF7E9FD0848006800902089ADF806
:100A10000000A07A8DF8030069466068FFF751FD79
:100A200038BD000000100240B04E00080146486882
:100A300080680A89104008B1012070470020FCE757
:100A400019B1028943681A6102E0028943685A6158
:100A5000704700000EB5044A07CA8DE807006846D3
:100A6000FFF7A8FF0EBD0000B44E00080EB5044A03
:100A700007CA8DE8070000216846FFF7E1FF0EBDB9
:100A8000C04E00082DE9F34F89B004464FF0000A2C
:100A9000A08840420FFA80F9B9F1000F02DD0BB0D7
:100AA000BDE8F08FB9F1000F06D12068079007A8C4
:100AB0000A9900F021F905E109F1010080BB2068E5
:100AC0000790BDF81E00401E00B2ADF81E0007A83A
:100AD0000A9900F011F920680790BDF81C00401C2D
:100AE00000B2ADF81C0007A80A9900F005F92068CB
:100AF0000790BDF81E00401C00B2ADF81E0007A80C
:100B00000A9900F0F9F820680790BDF81C00401E13
:100B100000B2ADF81C0007A80A9900F0EDF8D1E08A
:100B2000FFE7B4F9040003F0A3FA00224FF080437A
:100B3000CDE9020102F044FBCDE9040100BF2088A9
:100B400050440FFA80FBADF81CB06088484400B2F6
:100B50000690ADF81E0007A80A9900F0CDF820888D
:100B6000A0EB090000B2ADF81C006088A0EB0A0001
:100B700000B2ADF81E0007A80A9900F0BDF8208861
:100B8000A0EB090000B2ADF81C006088504400B230
:100B9000ADF81E0007A80A9900F0AEF8208850446E
:100BA00000B2ADF81C006088A0EB090000B2ADF8FF
:100BB0001E0007A80A9900F09FF82088A0EB0A0001
:100BC00000B2ADF81C006088A0EB090000B2ADF8DF
:100BD0001E0007A80A9900F08FF82088484400B248
:100BE000ADF81C006088504400B2ADF81E0007A8A4
:100BF0000A9900F081F82088484400B2ADF81C0042
:100C00006088A0EB0A0000B2ADF81E0007A80A99A0
:100C100000F072F82088A0EB0A0000B2ADF81C00CA
:100C20006088484400B2ADF81E0007A80A9900F099
:100C300063F80AF1010003F01BFA00224FF0804331
:100C4000CDE9020102F0BCFA05460E462A463346BB
:100C5000DDE9040103F086FCCDE9020102F09CFF0E
:100C600007468846484603F003FA3A464346CDE92C
:100C7000000102F0E9FF00221C4BCDE9020103F064
:100C80000FFA03D209F101000FFA80F90AF101000D
:100C90000FFA80FAB4F902200699881A03F0C4FE0C
:100CA0000290B4F90010ABEB010003F0BDFE01901F
:100CB000029903F0DBFD0E49039003F0CDFFFFF432
:100CC0003EAF00BF0A98C0F3400068B109482168F0
:100CD0000160A18881808088401E00B2054988801B
:100CE00004480A99FFF7CEFE00BFD8E60000E0BF37
:100CF000000080BF1600002033B5B0F900100029B5
:100D000052DBB0F9001080294EDAB0F90210002948
:100D10004ADBB0F90210402946DA019901F00101DD
:100D200011B3B0F90210CB1701EB5373DB101F4C5A
:100D300004EBC313B0F900401B5D0A46CC1701EB6E
:100D40005474E410A1EBC4050124AC402343B0F972
:100D50000210CC1701EB5474E410144D05EBC414CD
:100D6000B0F9005063551FE0B0F90210CB1701EB4A
:100D70005373DB100D4C04EBC313B0F900401B5D43
:100D80000A46CC1701EB5474E410A1EBC40501240E
:100D9000AC40A343CC1701EB5474E410034D05EBB6
:100DA000C414B0F9005063553CBD00009C00002005
:100DB00033B583B00446002510E0206800EB8500C1
:100DC00000680190681C216801EB800000680290B7
:100DD00001A8049900F008F8681CC5B22079401EEB
:100DE000A842EADC05B030BD2DE9F34784B00446E3
:100DF0000127B4F90210B4F90600814204DD6068ED
:100E000003902068029003E02068039060680290DD
:100E1000BDF90C00BDF90810884200DD00270398D9
:100E20000190BDF90400BDF90810884219D0BDF940
:100E30000600BDF90A10884213D0BDF90810BDF9AB
:100E40000420881A03F0F0FD8146BDF90A10BDF9AF
:100E50000620881A03F0E8FD8246494603F006FDA5
:100E60000646002F68D05AE001A80599FFF744FF15
:100E7000BDF90400BDF90810884206D1BDF806008E
:100E8000401C00B2ADF8060049E0BDF90600BDF90E
:100E90000A10884206D1BDF80400401C00B2ADF82B
:100EA00004003CE0BDF90810BDF90420881A03F0E5
:100EB000BBFD8146BDF90A10BDF90620881A03F072
:100EC000B3FD8246494603F0D1FC0546294630462B
:100ED00003F0FEFE80465049404603F0BDFD06D2B9
:100EE000BDF80600401C00B2ADF8060017E04B4903
:100EF000404603F0B1FE06D2BDF80400401C00B22B
:100F0000ADF804000BE0BDF80400401C00B2ADF8E1
:100F10000400BDF80600401C00B2ADF80600BDF9A3
:100F20000400BDF9081088429ED1BDF90600BDF944
:100F30000A10884298D167E05AE001A80599FFF7A6
:100F4000DBFEBDF90400BDF90810884206D1BDF8EA
:100F50000600401C00B2ADF8060049E0BDF90600ED
:100F6000BDF90A10884206D1BDF80400401E00B247
:100F7000ADF804003CE0BDF90810BDF90420881A62
:100F800003F052FD8146BDF90A10BDF90620881A0A
:100F900003F04AFD8246494603F068FC05462946AF
:100FA000304603F095FE80461C49404603F054FE4F
:100FB00006D2BDF80600401C00B2ADF8060017E0EE
:100FC0001549404603F048FD06D2BDF80400401E16
:100FD00000B2ADF804000BE0BDF80400401E00B202
:100FE000ADF80400BDF80600401C00B2ADF80600E4
:100FF000BDF90400BDF9081088429ED1BDF9060074
:10100000BDF90A10884298D102A80599FFF774FE2D
:1010100006B0BDE8F0870000BD3786B5BD37863520
:1010200013B582B004462068006800902079401E05
:10103000216801EB80000068019020460399FFF7CA
:10104000B7FE68460399FFF7CFFE1FBD73B586B0A4
:1010500004460798C0F34000F0B1002517E00026D1
:101060000FE02088284400B2ADF8140060883044B6
:1010700000B2ADF8160005A80799FFF73DFE701CF9
:10108000C6B2B4F90600B042EBDC681CC5B2B4F9D4
:101090000400A842E3DC2EE0206802902088A188AA
:1010A0000844401E00B2ADF80C006188ADF80E1087
:1010B0002088A1880844401E00B2ADF81000618865
:1010C000E0880844401E01B2ADF812102088ADF847
:1010D00014006188E0880844401E01B2ADF8161083
:1010E000064903C9CDE9000102A8009068460799A6
:1010F000FFF796FF00BF08B070BD00001455000850
:1011000073B581B00546002624E000241EE028883F
:10111000304400B2ADF800006888204400B2ADF859
:10112000020095F9040020380C4901EB001030F85A
:1011300016000121A14008400121A140884203D1AD
:1011400068460299FFF7D8FD601C44B2102CDEDB24
:10115000701CC6B2082ED8DB7EBD0000244F0008EC
:1011600000200CE0002106E00022064B03EBC01338
:101170005A544A1CD1B28029F6DB411CC8B2082857
:10118000F0DB70479C00002070B5314800F0F0FDA6
:10119000AE2001F08FFBD52001F08CFB802001F008
:1011A00089FBA82001F086FB3F2001F083FBD320C0
:1011B00001F080FB002001F07DFB402001F07AFB74
:1011C000A12001F077FBC82001F074FBDA2001F0C8
:1011D00071FB122001F06EFB812001F06BFBFF2000
:1011E00001F068FBD92001F065FBF12001F062FB02
:1011F000DB2001F05FFB302001F05CFBA42001F05C
:1012000059FBA62001F056FB002414E044F0B00086
:1012100001F050FB102001F04DFB002001F04AFBD3
:10122000002504E0002001F05DFB681CC5B2802DA4
:10123000F8DB601CC4B2082CE8DB8D2001F03AFB1F
:10124000142001F037FBAF2001F034FB70BD00002B
:101250000C4F000870B5202001F02CFB104800F066
:10126000CDFD78210E4800F09AFD40210C4800F099
:1012700096FD00240EE0002508E00A4800EBC410AB
:10128000415D074800F08BFD681CC5B2802DF4DB82
:10129000601CC4B2082CEEDB014800F058FD70BDA4
:1012A0000C4F00089C00002010B50446002C0DDAFD
:1012B00000210E48FFF7C4FB01210D48FFF7C0FBDA
:1012C000604281B20B4801F0A2F80DE0002C0BDD6A
:1012D00001210648FFF7B4FB00210548FFF7B0FBEA
:1012E000A1B2044801F093F810BD00003455000885
:1012F00040550008002C014010B50446002C0DDAC2
:1013000001210E48FFF79CFB00210D48FFF798FBD9
:10131000604281B20B4801F07CF80DE0002C0BDD3F
:1013200000210648FFF78CFB01210548FFF788FBE9
:10133000A1B2044801F06DF810BD00004C55000842
:1013400058550008002C014000B58DB0174A07CA57
:101350000AAB07C3154A0C3207CA07AB07C30AA872
:10136000FFF728FB07A8FFF725FB104A183207CA2A
:1013700004AB07C30D4A2432D2E900109268CDE9CC
:101380000202019104A8FFF715FB01A8FFF712FB69
:101390000748FFF70FFB0748FFF70CFB0648FFF76E
:1013A00009FB0648FFF706FB0DB000BD64550008B9
:1013B00034550008405500084C55000858550008A1
:1013C00010B54FF0804000F006FF40B209490870A8
:1013D0004FF40041C80301F01FF8074800F0FBFE7E
:1013E00040B2064908704FF40041034801F014F878
:1013F00010BD0000680000200004004069000020CB
:1014000010B500210748FFF71BFB00210648FFF736
:1014100017FB00210548FFF713FB00210448FFF7E5
:101420000FFB10BD34550008405500084C5500080E
:101430005855000870B5002100230F22C47804B36A
:10144000154C246804F4E064C4F5E064210AC1F199
:101450000403CA40447804FA03F184781440214319
:1014600009010E4C0678A155047804F01F050124EB
:10147000AC4005786D11AD0005F1E025C5F80041DF
:1014800009E0047804F01F050124AC40044D0678FF
:10149000761145F8264070BD0CED00E000E400E058
:1014A00080E100E002490143024A116070470000F8
:1014B0000000FA050CED00E02DE9F04104460D4670
:1014C000601903F0B1FA0746124903F0F9FA06462B
:1014D00011480168304603F05BF90F4908600F4975
:1014E0000D48006803F0B8FA04D24FF080400C4970
:1014F00008600DE0084801680A4803F0ADFA04D21C
:101500004FF040400649086002E0002004490860AE
:10151000BDE8F0818FC2F53C7C0000200000A0C136
:101520006C0000200000A0412DE9F04706460F4660
:101530003946304603F0CCFB81462A4903F028F9AE
:10154000044621464FF07F5003F0BAFA8046214608
:10155000254803F0B5FA814624480168484603F05F
:1015600017F92249086022492048006803F074FBFB
:1015700003D21F481D49086008E01E491B48006847
:1015800003F06AFA02D21B48184908601A48016839
:10159000204603F09DFB8146184903F091FA054669
:1015A0001548046011480168404603F0F1F881468F
:1015B000294603F0EDF81249086012491048006806
:1015C00003F04AFB03D20F480D49086008E00E49BA
:1015D0000B48006803F040FA02D20B480849086043
:1015E000BDE8F0873333F3BF3333B33E80000020D0
:1015F00000002042000020C284000020333353400A
:10160000700000200000AA420000AAC22DE9FC5F81
:1016100082460E461746504603F006FA39460090B9
:1016200003F04BFB05462946524803F049FA019066
:101630002946514803F044FA009050480168009848
:1016400003F0A6F84D4908604D494C48006803F086
:1016500003FB03D24A484949086008E04949474822
:10166000006803F0F9F902D2464844490860464848
:101670000168284603F02CFB0021009003F020FABB
:101680008046414805603D480168019803F080F8B4
:101690004146009003F07CF83C49086038493B48DB
:1016A000006803F0D9FA03D235483849086008E0E9
:1016B00034493648006803F0CFF902D23148334943
:1016C0000860304603F0B0F93946009003F0F5FAAF
:1016D00004462146274803F0F3F98346214626486D
:1016E00003F0EEF900902A480168009803F050F8E2
:1016F0002749086022492648006803F0ADFA03D262
:101700001F482349086008E01E492148006803F08B
:10171000A3F902D21B481E4908601E4801682046F2
:1017200003F0D6FA0021009003F0CAF98146194867
:10173000046017480168584603F02AF849460090AB
:1017400003F026F8144908600D491348006803F0B7
:1017500083FA03D20A481049086008E009490E4894
:10176000006803F079F902D206480B490860BDE829
:10177000FC9F000000000C4300000C428800002089
:1017800000F8E04500F8E0C58C000020740000205F
:1017900090000020940000207800002010B513492C
:1017A000134800F0EFFA01216B2000F0A9F90021A5
:1017B0006C2000F0A5F90021382000F0A1F90921E2
:1017C000192000F09DF906211A2000F099F9002156
:1017D0001C2000F095F900211B2000F091F97520E4
:1017E00000F00AF80349087010BD00000002300044
:1017F0001C5500083C00002070B504460D4800F060
:10180000FDFAD0210B4800F0CAFA2146094800F041
:10181000C6FA084800F0F2FAD121064800F0BFFAF3
:101820000121044800F062FA0546024800F08FFAF0
:10183000284670BD1C5500082DE9F04F89B03D20A9
:10184000FFF7DAFF04463E20FFF7D6FF814649EA5C
:10185000042000F2262000B29A4908803F20FFF7BA
:10186000CBFF04464020FFF7C7FF814649EA04202A
:1018700000F2AA5000B2944908804320FFF7BCFF51
:1018800004464420FFF7B8FF814649EA0420993016
:1018900000B208908C48B0F9000003F0C5F8834608
:1018A0008848B0F9000003F0BFF85946059002F0EF
:1018B000DDFF824602F040FF074601F0F5F90546DC
:1018C00002F090F907900020804901F0AFF805463A
:1018D00000227F4B02F074FACDE90401089803F06E
:1018E000A3F8019002F028FF05460022794B02F090
:1018F00067FA07460022784B02F00EFCCDE90201A0
:10190000DDE9042302F008FC824602F06BF9069040
:1019100072480168069803F0DBF90646704903F047
:10192000CFF805466F480168284602F031FF6D493F
:1019300008606D4A9168506802F02AFF07466849BE
:1019400003F0BEF8054668490868684902F020FFC0
:101950000646294603F0BCF963490860C868604937
:1019600003F0AEF8054660484168284603F0A5F943
:101970005D494860C8685A4903F0A2F805465A48CC
:101980008168284603F099F957498860C868584922
:1019900002F0FEFE5449C86008684FF07C5102F026
:1019A000F7FE054650490868294602F05FFF514995
:1019B00008604D4908684FF07C5102F0E9FE054689
:1019C00049498868294602F051FF4B49086045485B
:1019D0000168079803F07CF90646464801683046DE
:1019E00003F06EF805463F480168284602F0D0FE35
:1019F0003C49086008460168079803F069F9064603
:101A00003D480168304603F05BF8054633480168FD
:101A1000284602F0BDFE3149086033480168354868
:101A2000006803F04DF805462F480168284603F08A
:101A300044F92D490860084641682E48006803F0C3
:101A40003FF8054628484168284603F036F92649FC
:101A50004860084601682848006803F031F80546E8
:101A600021488168284603F028F91F498860084604
:101A700041682148006803F023F805461A48C16808
:101A8000284603F01AF91849C86000200F4900F0F1
:101A9000CDFFCDE904011348006802F04DFE074672
:101AA000DDE9042302F08CF905460022084B02F020
:101AB00033FB824602F096F81049086009B0BDE891
:101AC000F08F00003E000020400000200000F0BF2A
:101AD000008066400000E04000406F404800002069
:101AE0000AD7233C54000020580000206F12833A8C
:101AF000A69B443B4C0000205000002044000020E6
:101B000070B504460D46094800F078F9D021074821
:101B100000F045F92146054800F041F929460348FF
:101B200000F03DF9014800F012F970BD1C550008A5
:101B300030B500210022002400232D4D6D6805F0F2
:101B40000C0121B1042905D0082923D105E0294D34
:101B5000056022E0274D05601FE0254D6D6805F406
:101B60007012234D6D6805F48034022505EB924216
:101B70001CB9214D554305600BE01D4D6D6805F402
:101B800000351DB11C4D5543056002E0194D55430C
:101B9000056002E0174D056000BF00BF144D6D6881
:101BA00005F0F0010909154D6B5C0568DD404560E5
:101BB0000F4D6D6805F4E061090A104D6B5C4568D6
:101BC000DD4085600A4D6D6805F46051C90A0B4D12
:101BD0006B5C4568DD40C560054D6D6805F44041AE
:101BE000890B074D6B5CC568B5FBF3F5056130BD2E
:101BF0000010024000127A0000093D0000000020A1
:101C00001000002010B500F001F810BD0CB5002048
:101C1000019000903348006840F4803031490860FA
:101C200000BF3048006800F4003000900198401C6C
:101C30000190009818B90198B0F5A06FF1D129482A
:101C4000006800F4003010B10120009001E0002095
:101C500000900098012843D12348006840F010000C
:101C6000214908600846006820F00700086008461F
:101C7000006840F0020008601A484068194948604E
:101C80000846406848600846406840F48060486004
:101C90000846406820F47C1048600846406840F4DC
:101CA000E81048600846006840F08070086000BF97
:101CB0000C48006800F000700028F9D0094840681E
:101CC00020F00300074948600846406840F00200E1
:101CD000486000BF0348406800F00C000828F9D1B4
:101CE0000CBD000000100240002002402DE9F04130
:101CF00004460F460026012104F10C00FEF7A0FE69
:101D0000002512E001212046FEF79AFE04F10C00A6
:101D1000FEF78CFE012802D18020284106430021D5
:101D20002046FEF78DFE681CC5B2082DEADB394659
:101D300004F10C00FEF784FE01212046FEF780FE30
:101D400000212046FEF77CFE3046BDE8F08110B54C
:101D50000446002104F10C00FEF772FE012120462A
:101D6000FEF76EFE012104F10C00FEF769FE10BDC6
:101D700010B504462046FEF71DFE04F10C00FEF7E8
:101D800019FE10BD70B504460D4629462046FEF7E3
:101D90002BFE294604F10C00FEF726FE70BD2DE94E
:101DA000F04104460E46002511E08020284100EA5B
:101DB000060104F10C00FEF743FE01212046FEF768
:101DC0003FFE00212046FEF73BFE681CC5B2082DF1
:101DD000EBDB012104F10C00FEF732FE012120466D
:101DE000FEF72EFE04F10C00FEF720FE0746002150
:101DF0002046FEF725FE3846BDE8F08110B50446C2
:101E0000012104F10C00FEF71BFE01212046FEF724
:101E100017FE002104F10C00FEF712FE00212046FF
:101E2000FEF70EFE10BD000010B51348006840F02C
:101E300001001149086008464068104908400E49F1
:101E40004860084600680E4908400B49086008468B
:101E5000006820F4802008600846406820F4FE00F6
:101E600048604FF41F008860FFF7CCFE4FF0006021
:101E70000449086010BD0000001002400000FFF897
:101E8000FFFFF6FE08ED00E0F0B50C461546002217
:101E90000021068C4FF6FE773E400684028B018CB3
:101EA0004FF60C7632407E1C06EA03162E43324370
:101EB000104EB0420ED0104EB0420BD0B0F1804F59
:101EC00008D00E4EB04205D00D4EB04202D00D4E9D
:101ED000B04206D14FF6FD76314044F00106314361
:101EE00005E04FF6F576314044F0010631430283B8
:101EF0000184F0BD002C014000340140000400408A
:101F000000080040000C0040F0B50C4615460022C9
:101F100000210026078C4FF6EF7C07EA0C070784A8
:101F2000028B018C4FF6FF7707EA041640F6FF4755
:101F30003A404FF6FF7707EA03373A434FF6FF7709
:101F400007EA05273A43114FB8420ED0104FB84266
:101F50000BD0B0F1804F08D00E4FB84205D00E4FD5
:101F6000B84202D00D4FB84206D14FF6DF77394064
:101F700046F01007394305E04FF65F77394044F0EB
:101F80001007394302830184F0BD0000002C01409A
:101F9000003401400004004000080040000C0040F4
:101FA000F0B50C461546002200210026078C4FF69E
:101FB000FF6C07EA0C070784828B018C4FF6FF77D2
:101FC00007EA04264FF60C773A404FF6FF7707EA08
:101FD00003172F433A43114FB8420ED0104FB84267
:101FE0000BD0B0F1804F08D00E4FB84205D00E4F45
:101FF000B84202D00D4FB84206D14FF6FF573940D4
:1020000046F48077394305E04FF2FF57394044F4F6
:102010008077394382830184F0BD0000002C0140A9
:10202000003401400004004000080040000C004063
:10203000F0B50C461546002200210026078C4EF60E
:10204000FF7C07EA0C070784828B018C4FF6FF7731
:1020500007EA043640F6FF473A404FF6FF7707EAB3
:1020600005273A434FF6FF7707EA03373A43114F04
:10207000B8420ED0104FB8420BD0B0F1804F08D00C
:102080000E4FB84205D00E4FB84202D00D4FB842A5
:1020900006D14DF6FF77394046F48057394305E0C5
:1020A00047F6FF57394044F480573943828301840F
:1020B000F0BD0000002C014000340140000400404D
:1020C00000080040000C004010B50121014800F05C
:1020D00043F810BD002C014010B50121880700F025
:1020E0003BF810BD10B50121014800F035F810BDD6
:1020F0000004004010B515480078401C13490870D2
:1021000008460078142190FBF1F201FB120028B977
:102110000F48007840F001000D4908700B48007826
:102120000A2190FBF1F201FB120048B9084800783F
:1021300040F0020006490870FFF77EFBFFF740F908
:102140000121044800F008F810BD0000150000202F
:102150001400002000080040CA430282704721B1E9
:10216000028842F00102028004E002884FF6FE730A
:102170001A400280704731B1B0F8442042F4004266
:10218000A0F8442005E0B0F84420C2F30E02A0F805
:1021900044207047F0B50C4615461E46002100222B
:1021A00000230189028B038C4FF6F87739402143D5
:1021B0004FF6FC473A4040F201173A434FF6DD77BD
:1021C0003B404FF6FF7707EA06172F433B43018159
:1021D00002830384F0BD0146888C704770B50546C4
:1021E0000C46244885420ED0234885420BD0B5F1D9
:1021F000804F08D02148854205D02148854202D031
:102200002048854200D100E000BF208850B92389D2
:10221000A28861882846FFF737FEE188284600F04B
:10222000FDF825E0208804280AD12389A288618846
:102230002846FFF769FEE188284600F0F8F817E025
:10224000208808280AD12389A28861882846FFF7B8
:10225000A7FEE188284600F0F7F809E02389A28864
:1022600061882846FFF7E4FEE188284600F0F5F88B
:1022700070BD0000002C014000340140000400400B
:1022800000080040000C0040002101804180012135
:1022900081800021C180018170471AB183890B437D
:1022A000838102E083898B438381704701894FF6E4
:1022B000F87211400181704770B50024002200239C
:1022C000058C4FF6FE7635400584028C8388048B9E
:1022D0004FF68F752C40B51E2C400D882C43751E73
:1022E0002A400D892A434D882A43144DA8420BD019
:1022F000134DA84208D0134DA84205D0124DA84254
:1023000002D0124DA84213D14FF6F7752A404D89DD
:102310002A434FF6FB752A408D882A434FF6FF6506
:102320002B404FF6FF552B408D892B43CD892B43F6
:1023300083800483CD888586028470BD002C014093
:102340000034014000400140004401400048014089
:102350000A460021018B4FF6F773194011430183A0
:102360007047000070B5002200230024058C4EF653
:10237000FF7635400584038C8488828B48F6FF7590
:102380002A404FF6FF452A400D884FF6FF7606EAB1
:1023900005252A434DF6FF752B400D8906EA0535C4
:1023A0002B434D8806EA05352B430B4DA84202D03E
:1023B0000A4DA84208D14BF6FF752C408D894FF687
:1023C000FF7606EA85152C4384808283CD88A0F8A9
:1023D0004050038470BD0000002C014000340140D7
:1023E0000A460021818B4FF2FF7319404FF6FF73AD
:1023F00003EA022319438183704700210180418051
:102400008180C180018141818181C1817047818644
:102410007047A0F84010704781847047028B4FF6D8
:10242000F3731A400283028B0A4302837047028BC4
:102430004FF2FF331A400283028B4FF6FF7303EA19
:1024400001231A4302837047828B4FF6F3731A40BD
:102450008283828B0A4382837047828B4FF2FF33E1
:102460001A408283828B4FF6FF7303EA01231A43DB
:1024700082837047002202881D4B98420ED01D4B6C
:1024800098420BD0B0F1804F08D01B4B984205D03A
:102490001A4B984202D01A4B984204D14FF68F73D0
:1024A0001A404B881A43174B984207D0164B984254
:1024B00004D04FF6FF431A40CB881A4302808B8822
:1024C00083850B8803850A4B98420BD0094B9842B1
:1024D00008D00E4B984205D00D4B984202D00D4BC0
:1024E000984201D10B7A0386012383827047000052
:1024F000002C01400034014000040040000800406E
:10250000000C00400010004000140040004001405A
:10251000004401400048014000B587B02048806970
:1025200040F400601E4988611E48FFF7BFFE1E4A46
:1025300007CA04AB07C304A91A48FFF79BFF684604
:10254000FFF75BFF6020ADF800000120ADF802004E
:102550000020ADF80600ADF8080069461148FFF705
:10256000ABFE08210F48FFF7F3FE69460D48FFF761
:10257000F9FE08210B48FFF733FF00210948FFF758
:1025800046FF00210748FFF744FF01210548FFF7F8
:10259000F2FD01210348FFF7E2FD07B000BD000096
:1025A00000100240002C0140D84E000800B587B052
:1025B0001A48C06940F001001849C861184A07CAA2
:1025C00004AB07C304A94FF08040FFF753FF01A8F5
:1025D000FFF75AFE0020ADF804000F20ADF80C0004
:1025E00001A94FF08040FFF7F9FD0420ADF8040089
:1025F00001A90007FFF7F2FD4FF40041C803FFF700
:102600000BFF00231A4603214FF08040FFF7C2FD65
:1026100001218807FFF7A3FD07B000BD00100240AD
:10262000E44E000800B587B01948C06940F00200C8
:102630001749C861174A07CA04AB07C304A916485B
:10264000FFF718FF01A8FFF71FFE0020ADF80400F8
:102650000F20ADF80C0001A90F48FFF7BFFD0420C3
:10266000ADF8040001A90C48FFF7B8FD4FF4004194
:102670000948FFF7D1FE00231A4603210648FFF759
:1026800089FD01210448FFF76AFD07B000BD000085
:1026900000100240F04E0008000400401FB5114831
:1026A0000068039003A8FEF7C5FE0F48C06940F01C
:1026B00004000D49C8610D48FFF7F8FD094A121DD5
:1026C00007CA8DE8070069460848FFF7D3FE0122D4
:1026D00011460648FFF7E1FD01210448FFF73FFDE1
:1026E0001FBD0000FC4E0008001002400008004022
:1026F00021B1828942F40052828104E082894DF640
:10270000FF731A40828170472DE9F04786B0054675
:102710000E460024A24600BFA1460027B08900B1A2
:1027200000BF2F462C8A4CF6FF700440F08804430B
:102730002C82AC894EF6F3100440B08831890843EE
:10274000718908430443AC81AC8A4FF6FF400440D2
:10275000B0890443AC8201A8FFF7EAF91F48874219
:1027600002D1DDF810A001E0DDF80CA0A88900F48A
:10277000004040B10AEBCA0000EB0A103168490082
:10278000B0FBF1F807E00AEBCA0000EB0A10316871
:102790008900B0FBF1F86420B8FBF0F004012009D7
:1027A000642101FB1089A88900F4004040B1322067
:1027B00000EBC900B0FBF1F000F00700044308E0B3
:1027C000322000EB09106421B0FBF1F000F00F00A3
:1027D00004432C8106B0BDE8F087000000380140BA
:1027E0001FB50C48C06940F480200A49C8610A48F6
:1027F000FEF7E0F80948FEF7DDF8094B0FCB8DE84E
:102800000F0069460748FFF77FFF01210548FFF7E2
:102810006FFF1FBD0010024094550008A05500082E
:10282000AC5500080048004002480088C0F308008A
:102830007047000004480040C0F30802074B1A80AC
:1028400000BF064A121F128802F080020AB101215D
:1028500000E000210029F4D0704700000448004047
:102860002DE9F84106460F4600240EE056F82400F4
:102870000090002505E01DF80500FFF7DDFF681C4E
:10288000C5B2042DF7DB601CC4B2BC42EEDB00BF56
:102890000748008800F0400010B14FF0010801E047
:1028A0004FF00008B8F1000FF2D0BDE8F881000049
:1028B0000048004010B504460948FFF79FFA782108
:1028C0000748FFF76CFA00210548FFF768FA214630
:1028D0000348FFF764FA0248FFF739FA10BD000019
:1028E0000C4F000810B504460948FFF787FA782115
:1028F0000748FFF754FA40210548FFF750FA2146F0
:102900000348FFF74CFA0248FFF721FA10BD000018
:102910000C4F0008490050EAC12018BF04204A0D9E
:1029200018BF40F0010040F2FF72B2EB515F08BFE8
:1029300040F00200012808BF052070472DE9F04152
:102940004F1E00EBC7010446D1E9000115461E46A3
:1029500037F006020DD02A46334601F0DDFB7F1E1C
:1029600004EBC703D3E9002301F06EF937F0060248
:10297000F1D1022F25D0042F13D0062F18BFBDE8A8
:10298000F0812A46334601F0C7FBD4E90A2301F05F
:102990005BF92A46334601F0BFFBD4E9082301F076
:1029A00053F92A46334601F0B7FBD4E9062301F078
:1029B0004BF92A46334601F0AFFBD4E9042301F07A
:1029C00043F92A46334601F0A7FBD4E9022301F07C
:1029D0003BF92A46334601F09FFBD4E90023BDE8CA
:1029E000F04101F031B900000022134610460149C0
:1029F00001F0E6B90000F03F012202F010BA01F048
:102A000023B9002213461046114601F0D9B940F20D
:102A1000013200204FF0E04102F001BA024A0020EA
:102A2000110702F0FCB9000001FDFFFF2DE9F04D98
:102A30000546DFF8388221F000408D4F82B00C4609
:102A4000404520DBA0EB080129430BD0894988428F
:102A500001DC10D17DB102B028462146BDE8F04D21
:102A6000FFF7CABF002CC7BF002001468248394685
:102A700002B0BDE8F08D0120FDF768FC02B0BDE8B2
:102A8000F04DFFF7BEBF7D49884244DA7C49814260
:102A9000A1BF79487B4902B0BDE8F08D2A462346A4
:102AA0001046194601F038FB8346024676480E462A
:102AB0000B4606217844FFF741FF5A46334601F0A2
:102AC0002BFB074671488A465A4633460421784410
:102AD000FFF734FF5A46334601F01EFB00224346FF
:102AE00001F0B2F802460B463846514601F068F94B
:102AF0002A46234601F010FB654A664B01F040FC74
:102B00002A46234601F03CFC02B05B4ABDE8F04D8A
:102B10005C4B01F035BC002C4FF000024BDA46460E
:102B200043462846214601F08FF84FF0FF3202F06D
:102B300076F90446024658480D460B46062178446D
:102B4000FFF7FCFE22462B4601F0E6FA804653488A
:102B50008A4622462B4604217844FFF7EFFE2246A0
:102B60002B4601F0D9FA0022334601F06DF80646F3
:102B70008B462046294601F00FF804460D463246A2
:102B80005B464046514601F01BF922462B4601F0B8
:102B9000C3FA3F4A3F4B01F0E5FC22462B4601F0C9
:102BA00053F8012202F03BF902B03B46BDE8F04D7C
:102BB000314A01F0E5BB2D4B2846214601F0E0FBF0
:102BC0004FF0FF3202F02BF905460E4600F0E4FF0D
:102BD00000270C4680463A460B4601F035F88246FF
:102BE0008B463A4623461046194601F095FA2A4686
:102BF000334601F0C5FB52465B4601F0E1F88246E0
:102C000027488B462A46334606217844FFF796FE2E
:102C10002A46334601F080FACDE9000121482A46D0
:102C2000334604217844FFF789FE2A46334601F0F3
:102C300073FA00220D4B01F007F802460B46DDE95E
:102C4000000101F0BDF84246234601F065FA524604
:102C50005B4600F0F9FF3A46234600F0F5FF02B06C
:102C60000122BDE8F04D02F0DAB800000000F03FAC
:102C7000FB2109400000F07F182D44540000E03F84
:102C80000000603CFB21F93F882B00009E2B0000D8
:102C9000075C143326A6913CFE2A0000142B00008A
:102CA000322A0000482A00002DE9F84F04460D465C
:102CB00021F0004000917349814211DC7249884241
:102CC00001DC06D12CB120462946BDE8F84FFFF7BC
:102CD00093BE6E48002DCCBF6D496E49BDE8F88F9C
:102CE0006D49814211DD6D498142D8BF4FF0FF36F9
:102CF0006DDD20462946FFF70DFE042808BFFFF7CB
:102D00008DFE20462946BDE8F88F6549654F25F0C0
:102D10000045814233DD6449814219DD0026324697
:102D20004FF080432046294600F08EFF80468A46B9
:102D300001222046294602F072F800223B4601F0AB
:102D400011FC4246534601F03BF804460D463EE076
:102D500001260022BA463B462046294600F074FF71
:102D600080460F46002253462046294601F0FAFBD2
:102D700042463B4601F024F804460D4627E04B4905
:102D800081421BDDDFF828A102260022534620469F
:102D9000294601F0C1F900223B4600F055FF80466C
:102DA0000F46002253462046294601F0DBFB4246EF
:102DB0003B4601F005F804460D4608E0032622468E
:102DC0002B4600203B4900F0FBFF04460D462246FF
:102DD0002B461046194601F09FF98B468246024663
:102DE0000B4601F099F907460246334888460B46E0
:102DF00006217844FFF7A2FD52465B4601F08CF9AC
:102E000082462E488B463A46434605217844FFF7D2
:102E100095FD3A46434601F07FF902460B46002EE7
:102E2000504659460CDA00F00FFF22462B4601F0BF
:102E300073F901B022462B46BDE8F04F01F0A0BA6D
:102E400000F002FF22462B4601F066F91C4A7A4444
:102E500002EBC603D3E9002301F084FB22462B4694
:102E600001F080FB174A7A4402EBC603D3E9002342
:102E700001F086FA009A002AB8BF81F00041BDE84F
:102E8000F88F0000000010440000F07F182D44541B
:102E9000FB21F93FFB21F9BF0000DC3F0000203E91
:102EA0000000F33F0000F03F0000E63F00800340D9
:102EB0000000F83F0000F0BF02290000C028000019
:102EC0005E28000026280000A4B04FF4A060FEF7A2
:102ED000E9FAFDF7BFFDFDF7C9FDFEF755F92C2214
:102EE000A54919A8FDF7F8F92C22A3492C310EA801
:102EF000FDF7F2F900200B900C900D900EA80B90AE
:102F000019A80C902C229C4958316846FDF7E4F929
:102F10000BA80490FEF742FCFEF716FAFFF760FCE0
:102F2000FFF7FAFAFFF742FBFFF77CFBFFF7B6FB70
:102F300021E19248007800F0010060B18F480078EC
:102F400000F0FE008D490870FEF70AF96846FDF7AB
:102F50008BFBFEF77FF98948007800F0020000281B
:102F600077D08648007800F0FD00844908708448D6
:102F7000007810B983480078F8B10020FEF794F982
:102F80000020FEF7B9F9FEF73BFA7F4800687F4959
:102F90000860002048607E4890F9000001F044FD80
:102FA0007A4988607B4890F9000001F03DFD77493F
:102FB000C860002008614861C5E077497248006830
:102FC00001F04AFD05D370480168744801F044FDE2
:102FD00005D201206A490870FEF712FAB3E06A4888
:102FE000006801F0A9FB21F00041044600226C4B6F
:102FF00001F056F80CD26B48B0F9000044F620619D
:10300000884205DD01205F490870FEF7F9F99AE072
:103010006548008801281DD15B4909685B4A08465C
:1030200011604FF08041FEF77FFA5849C86801F0FF
:10303000DFFC04B25549886801F0DAFC05B25B4850
:10304000006852490246486021462846FEF7DEFAEB
:1030500063E08CE054480088022828D14A49096876
:103060004A4A084611604FF04041FEF75DFA494870
:1030700090F9000001F0D8FC44490646C86001F010
:10308000B7FC04B2424890F9000001F0CDFC3F4982
:103090000646886001F0ACFC05B2444800683B4934
:1030A0000246486021462846FEF7B0FA35E0394826
:1030B00090F9000001F0B8FC34490646C86001F000
:1030C00097FC04B2324890F9000001F0ADFC2F49A2
:1030D0000646886001F08CFC05B221462846FEF7C2
:1030E000EBF929490968294A0846116030490968FD
:1030F000FEF71AFA2549C86801F07AFC04B22349A0
:10310000886801F075FC05B2284800681F4902462E
:10311000486021462846FEF779FA264909681B4A85
:103120000846116101F064FC04B22046FEF7BCF8C9
:1031300021490968154A0846516101F059FC04B259
:103140002046FEF7D9F81048006801F051FC04B29F
:1031500022461AA113A8FDF73BF8FFF765FB1249B9
:1031600008800446224615A11EA8FDF731F8062165
:103170000648FFF775FBDCE6BC550008140000208C
:103180009800002099000020440000209C040020AA
:103190006800002069000020000034C200003442B2
:1031A00000002440400000209A0000207000002011
:1031B0006C000020740000207800002025640000CE
:1031C0002DE9F04D1D460C4698B0174621F0004100
:1031D00023F00043002814BF4FF0010C4FF0000C07
:1031E0000CEB440CFE4A0CEB02064FEA620C6645FF
:1031F0002BD33E0018BF012606EB45061644F94ABC
:10320000964222D3F84A53EA070C02D0944205D1E1
:1032100048B918B000201146BDE8F08D002808BF5D
:103220004FF0000C01D04FF0010C0CEB440212F5F2
:10323000001F0AD8002F14BF4FF0010C4FF0000CF4
:103240000CEB450212F5001F07D918B03A462B4681
:103250002146BDE8F04DFFF7D2BB0022DFF88CA37A
:10326000002CB8BF534526DADFF884C36345A8BFF6
:10327000022220DADFF870C39C451CDCDFF874C33F
:103280000CEB235CBCF1140F08DDCCF1340627FAFB
:1032900006FC0CFA06F6BE420DD108E05FB9CCF18F
:1032A000140623FA06FC0CFA06F69E4203D10CF033
:1032B0000102C2F1020251EA000C19D1002D17DA05
:1032C000002C18BF022A01D0012A07D00220FDF7E6
:1032D0003DF818B0BDE8F04DFFF786BB0220FDF7C2
:1032E00035F8FFF781FB18B081F00041BDE8F08DA3
:1032F000B7F1000C6CD1534525D104F1804212F591
:10330000801201BF00280020B74918B008BFBDE8EF
:10331000F08DB548884207DC002DA1BF60462946E4
:1033200018B0BDE8F08D07E0281E05DA80F00041F6
:1033300018B06046BDE8F08DAF497944D1E900018D
:1033400018B0BDE8F08DDFF8A0C2634525D1002D8F
:103350001FDA19B1514512D1D8B909E0002840F05F
:10336000EC82A24A214618B062F31E01BDE8F08D3E
:103370000020214618B060F31E01BDE8F08D08DA88
:1033800018B02346BDE8F04D02460020614600F02B
:1033900017BD18B02146BDE8F08D514518DAB5F1DA
:1033A000804F0DD0A5F1005CBCF1FF5C10D1B4F1F1
:1033B000000C0DDB18B06146BDE8F04D00F0ECBB31
:1033C000234618B00246BDE8F04D194600F0A4BEF1
:1033D000060024F0004C3BD1D9B1514533D1002C2B
:1033E00006DD002DA1BF0020514618B0BDE8F08DCC
:1033F000002C01DD002D1BDB002C13DA002D11DB6E
:10340000012A4FF0000014BF78497C4918B0BDE88C
:10341000F08D022A18BF002C0AD0012A08D1002CF6
:1034200006DA0AE0002CB8BF002D11DA012A04D018
:10343000002018B00146BDE8F08D18B000204FF014
:103440000041BDE8F08DA1F14050B0F17F601AD08D
:10345000012000EBE47050EA020421D0624C521EBD
:103460004FF0000B104304BF4FF0000B644C654855
:1034700083427CDD644A654893421FDD884217DB46
:10348000002D25DB37E0002C00DA4AB1022A0CBF00
:1034900001204FF0FF3018B0BDE8F04D00F0E8BD5E
:1034A0000120FCF753FF18B0BDE8F04DFFF7A9BAB3
:1034B0004D4A8A4202DC002D0ADC1CE0814202DA1D
:1034C000002D18DA04E0484B994220DD002D12DD72
:1034D0000220FCF73BFFFFF79AFA05460E46002252
:1034E00053465846214600F017FE18B066F31E01F9
:1034F0002846BDE8F08D0220FCF728FFFFF78EFA82
:103500000A46214618B062F31E01BDE8F08D002284
:103510003046614601F026F880460E466FF0010203
:1035200001F07DFC4FF05532394B00F029FF424647
:10353000334600F0F1FD0022364B00F021FF8246B9
:103540004246334604911046194600F0E5FD5246C6
:10355000049B00F0E1FD8A4600904FF0C0422E4BE4
:103560004046314600F0D8FD2C4A2B4B00E027E0C6
:10357000CDE906015146009800F0CEFD824601914A
:10358000274A284B4046314600F0C6FD5246019B73
:1035900000F0E8FF82460B4602460591DDE9060190
:1035A00000F052FBDDE9062300268846304600F095
:1035B000D9FF5246059B00F0E3FE024600F07EB9BB
:1035C0000020B1F5801F07DA35223046614601F050
:1035D00026FC06466FF0340000EB215024E000008A
:1035E000FFFF1F00FFFF0F000000F03F0000F07F13
:1035F0000000404301FCFFFF722400000000F0FFC8
:103600000000F0BF0000E0410000F043FFFFEF3F8B
:103610005555D53F0000E03F4715F73FFE822B652B
:1036200044DF5DF80BAE543EA0F2FF300190C1F3D1
:10363000130040F07F6141F040510291FE49884201
:10364000D8BF002004DDFD498142C8BF012001DD53
:103650000D9008E000200D900198401C0190029808
:10366000A0F5801002900299F54878440B910D99CD
:1036700000EBC100D0E900230F9330460A920B996A
:1036800000F070FFCDE90601DDE90A2130460F9B0D
:1036900000F0DAFA02460B460020EA4900F090FBFF
:1036A000059102460B460090DDE9060100F034FD6D
:1036B0001490E5488A464FF0000878440299006863
:1036C00012904FF0005040EA61010D980F9B01EB02
:1036D000804000F5002109910A9A129800F042FFFB
:1036E00032460B9B00F04CFE4246534600F014FD60
:1036F0000646029140465146099B129A00F00CFD85
:10370000DDE9062300F03CFE3246029B00F02AFF72
:10371000059B009A00F000FD0091149A0490534616
:103720001046194600F0F8FC06460246C7480B460C
:10373000029106217844FFF701F9CDE90510029BBB
:1037400032461046194600F0E7FCDDE9053200F08C
:10375000E3FC05910646534640461946149A00F08C
:1037600073FA009B049A00F0D7FC3246059B00F0E8
:103770006BFACDE90510424653461046194600F053
:10378000CBFC0022B24B02910A9000F05DFADDE919
:10379000053200F059FA0E464246AD4B404600F065
:1037A000E1FE029B0A9A00F0DDFEDDE9053200F041
:1037B000E7FD424602910A9033461046514600F01A
:1037C000ABFCCDE906015346149A02990A9800F021
:1037D000A3FC8A460290334642460099049800F0C2
:1037E0009BFC5346029A00F02FFA82460B46024693
:1037F0000591DDE9060100F027FADDE90623002046
:103800008846064600F0AEFE5246059B00F0B8FD25
:10381000824609914FF060428E4B3046414600F09F
:103820007BFC049006918C4A8A4B5046099900F023
:1038300073FC82460291894A894B3046414600F02A
:103840006BFC5246029B00F0FFF9864B7B440D9ABD
:1038500003EBC203D3E9002300F0F6F90E900791C1
:10386000019800F005FC0591DDE9061382460E9AE9
:10387000049800F0E9F97C4A7A440D9B02EBC303FB
:10388000D3E900230093029200F0DEF95246059B33
:1038900000F0DAF90026884652463046059B00F0D3
:1038A00061FE009B029A00F05DFE069B049A00F008
:1038B00059FE079B0E9A00F063FD024600200B465E
:1038C00002903846294600F027FC824601912B469B
:1038D00038461946029A00F045FE3246434600F04B
:1038E0001BFC5246019B00F0AFF907468A46324660
:1038F00043462946029800F00FFC05460E463A461C
:10390000534600F0A1F9594A8846914221DBA8EBC1
:10391000020353EA000210D12A46334600F022FE89
:10392000CDE90401524A534B3846514600F08CF918
:10393000DDE9042300F0EEFC21D20220FCF706FDB5
:10394000FFF765F80A46214618B062F31E01BDE88C
:10395000F08D494B28F000429A4210D3474A08EBB9
:10396000020353EA00027FF4C6AD2A46334600F054
:10397000F9FD3A46534600F0CDFC7FF6BCAD00227F
:10398000019228F000403E493E4A01EB205182421C
:1039900023DA481C4FF4801121FA00F040443A4ADF
:1039A000C0F30A517A44394BA1F2FF31CB4020EAEF
:1039B0000303C0F3130040F48010C1F11401C840A8
:1039C00012680190B8F1000FBCBF40420190284638
:1039D000314600F0C7FD05460E462A4633463846B6
:1039E000514600F031F94FF000084246284B40465E
:1039F000059100F091FBCDE90601264A264B404691
:103A0000059900F089FB009102902A463346404612
:103A1000059900F0A7FD3A46534600F0B1FC1F4A55
:103A20001F4B00F079FB009B029A00F00DF907464E
:103A3000884602460B4635E08E9803007AB60B00A6
:103A4000BA2000000000F03FF2200000202000001B
:103A50000000084009C7EE3FFD033ADCF5015B14A6
:103A6000E02F3EBEF81E0000BC1E0000000090408B
:103A7000FE822B654715973C00CC904000346F3F89
:103A800001FCFFFF0000E03F081E0000FFFF0F00E9
:103A9000432EE63F396CA80C615C20BEEF39FAFE7C
:103AA000422EE63FDDE9060100F0CEF8DDE906230F
:103AB00005460E4600F056FD3A46434600F060FCCF
:103AC0000F462A46334600901046194600F024FB64
:103AD000824602462E4888460B4605217844FEF76A
:103AE0002DFF5246434600F017FB2A46334600F0AE
:103AF00047FC80468A463B4628463146009A00F0FD
:103B00000BFB3B46009A00F09FF8069100900022C4
:103B10004FF080434046514600F024FD0F460C9084
:103B2000424653462846314600F0F6FA3B460C9A88
:103B300000F046F9069B009A00F014FD2A46334631
:103B400000F010FD0022134B00F01AFC054601980E
:103B50000E4601EB00510815002810DC28463146BE
:103B6000019A01F05CF9FEF7D5FE042808BFFEF7C4
:103B700055FF28463146019A01F051F905460B469A
:103B800018B02A4658462146BDE8F04D00F0C4BAA8
:103B9000A81C00000000F03F2DE9F04106460F464A
:103BA00000F0FAFB041E0D4618BF0120284320F048
:103BB0000040C0F17F6000F1E040C00F0ED0301C2B
:103BC00018BF0120384320F00040C0F17F6000F1B1
:103BD000E040C00F04BF0120FCF7B8FB2046294697
:103BE000BDE8F08121F00042A2F16052B2F5801FE1
:103BF00001F0004328BFD2F17F6C0BD95FEA001CB3
:103C000043EAC20242EB507018BF704728BF20F051
:103C100001007047B2F5801FBCBF184670474FEADD
:103C2000410C1CF5001F02D2084601F010B870B517
:103C300000F01CFB00000089FFF7F6BF4FF00040CA
:103C4000A0F580007047000010B591EA030F48BF4F
:103C500083F0004300F18E84841A71EB030C05D2CB
:103C6000121943EB0C03001B61EB0C01DFF824E19C
:103C70004FEA1154A4EB135C1EEA430F18BF9EEAEF
:103C8000445F73D023EA0E03DCF1200E21EA0451D5
:103C900043F4801332D322FA0CFE10EB0E0023FA09
:103CA0000CFE41EB0E01CCF1200E03FA0EFE10EBE0
:103CB0000E0051F10001B1F5801FCCF1200E32D27F
:103CC00001EB045112FA0EF2BDE8104058BF7047E4
:103CD000401C38BF5FEA420218BF7047002814BF7B
:103CE00020F0010041F100014FEA410313F5001FEC
:103CF00038BF7047A1F1C04100F006BB012A43EB79
:103D00000302ACF1200CDCF11F0E32BF4FF0000EAD
:103D100023FA0CF310EB030041EB0451B4EB115FF9
:103D2000D0D0A1EB045101F5801149085FEA3000C1
:103D300001EB04510ED350F1000038BF12FA0EFE11
:103D400008D1BDE81040C9E7401C38BF5FEA420215
:103D5000CAD1C3E7BDE810404FEA410313F5001F85
:103D600038BF7047A1F1C04100F0CEBA9EEA445F6F
:103D700008D011EA5E0FBDE8104004BF01F0004119
:103D800000207047BDE8104070B500F06FFA00BF2A
:103D900064FBBE3E0000E0FF02494FF0000001F06E
:103DA0000CB800BF0000F87F491058BFC1F1404176
:103DB0005B1058BFC3F140438B42EFF30080704764
:103DC0002DE9C04130B4DFF8A0C23CEA111418BF9D
:103DD0003CEA131400F0EC8081EA03051CEA11149C
:103DE00044EAD57418BF1CEA131500F0C780A4EB91
:103DF00005044FF0004545EAC12145EAC32341EAE5
:103E0000505143EA525304F17F74994204F500344F
:103E10004FEAC0204FEAC22208BF904200F09C80C7
:103E20004FEA13650FF24016765D4FEA134506FB25
:103E300005F7C7F1807706FB07F74FEAD737A7FBEF
:103E400003687642C8F58038A7FB06CE38BFA8F1D4
:103E5000010807FB08E64FF0000EA6FB028CE6FB0C
:103E600003CEDCF1000CCEF1004E38BFAEF1010EF6
:103E7000A6FB0C584FF000074FF00005E6FB0E873D
:103E8000A1FB08C6A0FB07CE16EB0E0645F1000508
:103E9000E1FB076515F1E04E7EBFA4F580345FEAD3
:103EA00046066D4116F1800745F100054FEA1727D8
:103EB0004FEA066647EA0567A6F1DE46B6F1805F7F
:103EC0004FEA15251FD9384624F0010C05EBC471C3
:103ED000BCF1FE6F01EB0C1102D8F0BCBDE8008113
:103EE00024425CBF01F5801E9EEAC47F02D4F0BC70
:103EF000BDE80081244238D4F0BCA1F1C041BDE846
:103F0000004100F001BA4FEAD22242EA43524FEA9E
:103F1000D323A7FB02864FEAD02040EA415007FB9B
:103F200003661EEA0E0F4FEAD12105FB026658BF59
:103F3000A6EB0056B6EB00564FEA520E4EEAC37E91
:103F400018EB0E0E56EB530EBDD518EB02085E4172
:103F50007F1C55F10005B6E74FF480154FF00007C0
:103F60004FF000064FF00008ADE7F0BC4FF0000046
:103F700001F1C04101F00041BDE8008111EA0C1FD0
:103F80000CEA131500D00CE013EA0C1F00F025809A
:103F90004FF00000F0BC81EA030101F00041BDE8F0
:103FA0000081F0BCBDE8004181EA030100F0ACB93A
:103FB000F0BCBDE8004170B500F058F9097EFC3E48
:103FC00000F007B881EA03014FF0000001F0004162
:103FD000704781EA030100F097B9F0BCBDE80041E9
:103FE0004FF0000021497047FFFDFBF9F7F5F4F2AF
:103FF000F0EEEDEBE9E8E6E4E3E1E0DEDDDBDAD884
:10400000D7D5D4D3D1D0CFCDCCCBCAC8C7C6C5C4E1
:10401000C2C1C0BFBEBDBCBBBAB9B8B7B6B5B4B3F8
:10402000B2B1B0AFAEADACABAAA9A8A8A7A6A5A4E3
:10403000A3A3A2A1A09F9F9E9D9C9C9B9A999998A7
:104040009797969595949393929191908F8F8E8E4A
:104050008D8C8C8B8B8A89898888878786858584D7
:1040600084838382828181800000FF070000F87FC3
:1040700010F0004248BF4042B0FA80F310FA03F15A
:104080000AD0C3F11D0303F580634FEA415002EBF0
:10409000035202EBD12170474FF00000704700003F
:1040A00051EA030C17D41CF5801F58BFBCF5801FC4
:1040B00000F10680994218BF704708BF90427047D0
:1040C00007D711F5801F58BF13F5801F19D49942E7
:1040D0007047894270471CF5801F08D5BCF5801FCA
:1040E000F7D58B4218BF704708BF824270474FF424
:1040F000001C1CEB410F38BF1CEB430F01D28B425D
:10410000704770B500F0B2F8922449004FF00051AA
:104110004FF08053FFF748BEDFF848C170B51CEA86
:10412000111E1EBF1CEA13159EEA0C0F95EA0C0F18
:1041300000F06F8081EA030423EA4C134EEAD47E38
:1041400021EA4C1141F4801143F48013AE44A1FBE9
:10415000024CA0FB0365AEF17F7E361955EB0C05D2
:10416000A1FB034C4CF10003A0FB021C16EB0C0658
:10417000654153F10003094218BF46F0010613F4EC
:10418000007F0BD14FEA03314FEA0530340341EA97
:10419000155140EA16506FF003020AE04FEAC321BE
:1041A0004FEAC520F40241EA555140EA56506FF0FB
:1041B000020202EB2E4201EB025585EACE710AD0D3
:1041C0005FEA440C18BF24F0004450F1000041F1B4
:1041D000000120EAD47040F2FE7C624500D270BD3E
:1041E000A84214BF4FF080444FF04044002E08BF57
:1041F0000024BEF1806FA8BFA1F1C041BDE87040AE
:1042000080F282804FF0000001F1C04101F00041D6
:1042100070479EEA0C0F0CEA131518BF95EA0C0FB5
:1042200006D04FF0000081EA030E0EF0004170BD91
:1042300000F01CF88900013E00F007B800F009B852
:104240004FEA430C5FEA5C5C08D081EA030100F0AE
:104250005BB84FEA410C5FEA5C5CF6D14FF00000BE
:10426000014970470000FF070000F87F0EF1020EC1
:104270002EF0030E5EF8046B364205D4012A43EBA0
:10428000030515F5001F12D8012841EB010C1CF5A0
:10429000001F0CD80ED14FEAD17C15F5001F0CEB96
:1042A0004C0C0CF1020C08BF4CEBD37C04E04FF03B
:1042B000080C01E04FEAD37C0CEB4C0526FA05F61E
:1042C00006F00706B6F1040C06D20EEB860CBDE82C
:1042D00070404CF0010C6047DFE80CF0090B020263
:1042E0004FF000414FF00000A1F5002170BD1946CC
:1042F0001046012851EB010418BFD4F5001484BF07
:10430000002001F0004170BD0808A0F500114FEA3F
:104310003101704753EA010C17D41CF5801F58BFB8
:10432000BCF5801F00F106808B4218BF704708BFA4
:104330008242704707D713F5801F58BF11F5801FC1
:1043400019D48B4270479B4270471CF5801F08D5DB
:10435000BCF5801FF7D5994218BF704708BF90423F
:1043600070474FF4001C1CEB430F38BF1CEB410F90
:1043700001D2994270470FB40CBC03BCFFF7C1BE19
:1043800091EA030F10B581F000413FF565AC83F071
:10439000004300F0EFB800002DE9F04101F5801C6A
:1043A000BCF5001FC0F2C3804FEA115C21EA0C513A
:1043B0000CF1FD0C41F480115FEA5C0C0CF5C07C43
:1043C00001D3400049413DA4890241EA905187024E
:1043D0008E0E0A0CA45D04FB04F602FB06F6C6F181
:1043E0004046A4FB0662F60D46EA422606FB06F4AA
:1043F000A4FB01235242C3F1404338BF5B1EA6FB1E
:1044000002420024E6FB0324D20B42EA4446A6FB08
:104410000623A1FB02E2A3FB07E4A4184FF000026D
:1044200052F10002E3FB01426442C2F1404E38BF48
:10443000AEF1010EA6FB04234FF00002E6FB0E32A4
:10444000A2FB03464FF00004B61954F10004E2FB4E
:104450000264A1FB06E6A4FB07E816EB08064FF092
:10446000000858F10008E4FB01687642C8F14058A2
:1044700038BFA8F10108A2FB06E4A3FB08E52D194B
:104480004FF0000454F10004E2FB0854A1FB05E6E0
:10449000A7FB04E818EB06084FF0000656F10006EB
:1044A000E1FB048618F1200556F10006A809A8F1E1
:1044B0001B08B10908F03F08B8F10A0F40EA86600E
:1044C0001CD901EB0C51BDE8F08100BFFCF5EEE812
:1044D000E2DDD8D3CFCBC7C3C0BDB9B6B4B1AEACA3
:1044E000A9A7A5A3A19F9D9B9A9896959392908F1B
:1044F0008D8C8B898887868584838281A0FB006868
:1045000000FB01F208EB4208B8EB872807D5341806
:1045100058EB0104D5D5401C51F10001D1E7341A04
:1045200078EB0104CDD4401E71F10001C9E75FEAC8
:104530004C0C5FEA9C5C0DD105D34FF0000001F0FC
:104540000041BDE8F081BDE8F04170B5FFF78EFE97
:104550006DDBFFBEBDE8F0414FF000000049704741
:104560000000F87F10B591EA030F48BF83F00043C5
:104570003FF572AB841A71EB030C07D212198CF061
:10458000004C43EB0C03001B61EB0C01DFF8A4E1D2
:104590004FEA1154A4EB135C1EEA430F18BF9EEAC6
:1045A000445F00F0B08023EA6E03524221EA0451D6
:1045B000C3EB6E0338BF5B1EDCF1200E25D322FA5D
:1045C0000CFE10EB0E0043FA0CFE41EB0E01CCF199
:1045D000200E03FA0EFE10EB0E0051F10001CCF19B
:1045E000200E29D412FA0EF201EB0451BDE810405E
:1045F00058BF7047401C1CBFB2F1004F70470028E5
:104600000CBF491C20F00100704712EB020E43EB77
:10461000030218BF4FF0010E4EEA4202ACF1200C2B
:10462000DCF11E0E54D943FA0CFE10EB0E0051F1D2
:10463000FF31CCF11E0ED5D50EF1010E12FA0EFE91
:10464000404141EB010101EB445C5FEA5C5C10D945
:1046500010EBDE7001EB045138BFBEF1004FBDE836
:10466000104018BF704700280CBF491C20F0010003
:10467000704730D24FEAD42C11F5001124F40064B5
:104680001BD0B1FA81F20B3AA41AA41ED2F1200376
:10469000914030FA03F31943904001EBCC71002CA8
:1046A00001EB0451BDE81040A8BF704701F1C041C3
:1046B0004FF0000001F000417047B0FA80F310FAAB
:1046C00003F100D110BDE41A173C4805C90AE4E71C
:1046D00001EB045110BD491001EB0451BDE810403D
:1046E0004FEA300002E04FF0000170474A0008BF77
:1046F0000042F8D0B2F5001F28BF704701F000411A
:104700004FF0000070479EEA445F07D011EA5E0F49
:10471000BDE8104004BF002100207047BDE81040F4
:1047200070B5FFF7A3FD00BF40DFF63E83F0004108
:10473000104670470000E0FF43004FEAD30C4FEAF9
:104740003C0C43401FBF40070CF1605113F0FE4F7B
:1047500070471CF0006F03D100200CF0004170473F
:104760000CF0004343EA507010B540EACC0000F072
:1047700028FA00BF000000924FEA0001FFF7C4BD15
:104780004FF000414FF00000A1F5002170470000FC
:1047900090EA010F48BF81F0004100F1A082421A67
:1047A0003CBF801A89184FEAD0524FF07F4C1CEA68
:1047B000410FA2EBD15318BF9CEA026F00F03B807F
:1047C0004FF0004C4CEA00204CEA012121FA03FC96
:1047D00010EB0C0C1ED202F1FF325FEA1C2040EB02
:1047E000C25038BF70471CF07F0F4FEA400C18BF13
:1047F000BCF17F4F38BF7047C3F12003994008BF19
:1048000020F00100BCF17F4F38BF7047A0F1C040DD
:1048100000F01DBA4FEA3C00000A40EBC25028BF2E
:104820001CF0FF0F4FEA400CE6D018BFBCF17F4FE1
:1048300038BF7047EAE79CEA026F05D010EA5C0FC8
:1048400008BF00F00040704710B500F0BAF900BF93
:1048500064FBBE3E401058BFC0F14040491058BFF5
:10486000C1F140418142EFF3008070474FF47F0C6B
:104870001CEAD0121EBF1CEAD11392EA0C0F93EA75
:104880000C0F00F0858090EA010F48BF42F480725F
:1048900040F4000C41F400002CF07F4120F07F40F8
:1048A00000B58142A2EB03020FF2081CACEB504EA4
:1048B000C0F100009EF800E04FEA4E0E00FB0EFC37
:1048C00038BF49004FEA2C1C02F5FA020CFB0EF32C
:1048D0004FEACE1E4FEA112C4FEAC1210EEB635E68
:1048E00042EB22420EFB0CFC4FEA1C5300FB03116F
:1048F0004FEA112C4FEA01310EFB0CFC4FEADC4C65
:1049000000FB0C11C14228BF09184CEB03335DF8C2
:1049100004EB10EB410143EBC250B2F57C0F38BF02
:10492000704729D512F0F00F1CBF00F1C04000F015
:1049300000407047008182838485868788898B8CBC
:104940008D8E8F919293959697999A9C9D9FA0A2F8
:10495000A3A5A7A8AAACAEB0B2B3B5B7B9BCBEC048
:10496000C2C5C7C9CCCED1D4D7D9DCDFE2E6E9ECE9
:10497000F0F3F7FAFE0000004FEA400C0CF1807CE7
:10498000BCF17E4F28BF7047B0F1C04000F05FB966
:1049900090EA010F0CEAD11348BF42F480726245DD
:1049A00038BF634507D213F47F0F16D080EA0100A9
:1049B00000F00040704710B500F003F9097EFC3E9E
:1049C00000F005B880EA010000F00040704780EA7E
:1049D000010000F0004000F03AB912F47F0F04BF6C
:1049E0000248704780EA010000F031B90000C07F42
:1049F00041000B0ED3F19E0208D950F400034FEA98
:104A0000032323FA02F048BF4042704710B500F07C
:104A1000D8F800BF49922480002070476FF0004210
:104A200082EA20007047000010F0004148BF404279
:104A3000B0FA80F310FA03F2C3F19D030BD051EAF0
:104A4000C35101EB1220530638BF704700F101003B
:104A500008BF20F00100704750EA010C00F11380FC
:104A60001CF5000F58BFBCF5000F01D488427047F9
:104A700007D710F5000F58BF11F5000F15D4884265
:104A80007047894270471CF5000F04D5BCF5000F34
:104A9000F7D5814270474FF0807C1CEB400F38BF48
:104AA0001CEB410F01D28142704710B500F089F82C
:104AB000922449004FF000504FF08051FFF7CABEDA
:104AC0004FF47F0C1CEAD0121EBF1CEAD11392EAED
:104AD0000C0F93EA0C0F00F0478090EA010F48BFDB
:104AE00042F480724FF0004C4CEA00204CEA012165
:104AF00002EB0302A0FB0113A2F50002002918BF7C
:104B000043F001035B0028BF4FEA330342EB22422C
:104B10005FEA132C4CEBC2502EBFBCEB436FB2F5D7
:104B20007C0F70474FEA036CBCF1004F08BF20F0C8
:104B30000100B2F57C0F38BF70470BD582F0FF0241
:104B400012F5803FC8BF704700F1C040D8BF00F0E9
:104B50000040704700F5000C5FEA4C0C48BF7047FE
:104B6000B0F1C04000F073B890EA010F0CEAD11325
:104B700048BF42F48072624538BF634504D280EA80
:104B8000010000F00040704710B500F01AF800BFB7
:104B90008900013E00F007B800F009B85FEA410C57
:104BA0005FEA1C6C08D080EA010000F050B85FEAB0
:104BB000400C5FEA1C6CF6D14FF00040A0F580007D
:104BC00070470EF1020E2EF0030E5EF8044B2442E5
:104BD00004D44FEA4102B2F17F4F11D84FEA4003AB
:104BE000B3F17F4F0CD80ED14FEAD07CB2F17F4F9A
:104BF0000CEB4C0C0CF1020C08BF4CEBD17C04E02C
:104C00004FF0080C01E04FEAD17C0CEB4C0324FA86
:104C100003F404F00704B4F1040C06D20EEB840C88
:104C2000BDE810404CF0010C6047DFE80CF00708CD
:104C300002024FF00040A0F5800010BD084642007F
:104C400018BFD2F1807288BF00F0004010BDFF2174
:104C500041EAD050C005704751EA000C00F11380C2
:104C60001CF5000F58BFBCF5000F01D481427047FE
:104C700007D711F5000F58BF10F5000F15D481426A
:104C80007047894270471CF5000F04D5BCF5000F32
:104C9000F7D5884270474FF0807C1CEB410F38BF3E
:104CA0001CEB400F01D28842704780EA010081EA84
:104CB000000180EA0100FFF7F8BE80F0004090EAB2
:104CC000010F7FF56CAD81F0004100F008B80000E5
:104CD00090EA010F48BF81F000413FF560AD421AF4
:104CE00004D882F00042A0EB020011444FEAD052F7
:104CF0004FF07F4C1CEA410FA2EBD15318BF9CEA46
:104D0000026F4AD04FF0004C4CEA00204CEA0121DF
:104D100021FA03FCB0EB0C0C0FD412F0FE0F36D0CE
:104D20005FEA4C001DD5001240EBC25038BF7047FF
:104D30001CF03F0F18BF70470BE0A2F101025FEAC1
:104D40001C2040EBC25038BF70471CF07F0F18BFCB
:104D50007047C3F12003994014BF401E20F00100AA
:104D6000704780084FEA122308BF7047B0FA80FCF2
:104D7000A2EB0C02CCF1280C60FA0CF093EA122F93
:104D800004BF00EBC25070474FEAC3707047130A6C
:104D90005FEADC1008BF7047F6E79CEA026F04D0B8
:104DA00010EA5C0F08BF0020704710B5FFF709FF3D
:104DB00040DFF63E81F0004070470CF00F03092BF6
:104DC00008BF082000F059800A2B0BD0082B18BF11
:104DD000704708BF1CF0400F0AD04FF000004FF0A2
:104DE000000170471CF0400F18BF4FF000407047A3
:104DF0001CF0100F08D020F0704300F07F4242EA10
:104E0000D3014FEA4370704700F0604021F07F42C9
:104E100042EA000201F07F4040EA727070474FF0B2
:104E2000FF0C4CF4E06C1CEA11531CBF9CEA030C11
:104E30009445C2BFDA4201EB02517047002B0DD0FE
:104E4000BCF1000F0FD0002A01F00041A4BF41F0D7
:104E5000E04141F07F614FF00000704701F00041F8
:104E60004FF00000704750EA01334FF09B0C18BF21
:104E70004CF0806C7EF490AF70471CF4801F11D012
:104E80001CF4E02F03D06FEACC31490070474FF09B
:104E90004050EFF3008222F0704242EA000282F3B7
:104EA000008870474FF000007047000000000300CA
:104EB000000003001000000000100140002010005E
:104EC0001000000000100140002010001000000041
:104ED0000010014000201000000000001F1C000016
:104EE0000000000000000000FFFF000000000000C4
:104EF00000000000FFFF0000000000001E0303018F
:104F00000F0E000013000000000000000800000069
:104F1000000C01400002140008000000000C0140D9
:104F2000000114000000000000000000000000006C
:104F300000000000000000000000FFCFFFCF0000D5
:104F4000000000000000070007000000000007004C
:104F500007000000081008F8E8171F1008F8E81705
:104F60001F100810300C48108420FFFFFFFF0421A1
:104F70000812300C0EC01130110C1173CE8830881D
:104F80000C880370002C1E43A180E18021872158EA
:104F90001E60009C000000000000070007000000E9
:104FA0000000000000000000C003381C0660018003
:104FB000000000000000000001800660381CC003F3
:104FC000000000004000800C0003F0010003800C92
:104FD00040000000800180018001F00FF00F80018F
:104FE000800180010000000000800070003000009F
:104FF00000000000800180018001800180018001AB
:105000008001800100000000000000C000C000001E
:105010000000000000C00030000C0003C0003000A1
:105020000C000300F00F0C300240018001800240B0
:105030000C30F00F0000088004800280FFFF008029
:10504000008000000CE002980184018201818180CF
:1050500042803C801C3002400180818081808180C0
:1050600042433C3C001800168011601018100610D6
:10507000FFFF0010FF3041402180218021802180EE
:105080004140813FFC3F82404180418041804180DE
:105090008240043F01C00130010C0103C100310016
:1050A0000D0003003C3C424241828181818141826A
:1050B00042423C3CFC200241018201820182018289
:1050C0000241FC3F00000000000060066006000096
:1050D00000000000000000000008600E60060000F4
:1050E00000000000000080004001200210040808B9
:1050F0000410000000004001400140014001400157
:1051000040010000000004100808100420024001C3
:10511000800000001C000200010001CC01CE8101D2
:1051200042003C00FC3F0240F99F05A005A0F99F0A
:105130000220FC1F00F0000FF0040F040F04F00425
:10514000000F00F0FFFF8180818081808180C2801C
:105150003C41003EFC3F0240018001800180018013
:1051600002400C30FFFF018001800180018002407D
:105170000C30F00FFFFF81808180818081808180F1
:1051800081800180FFFF810081008100810081001A
:1051900081000100F83F0240018201820182018208
:1051A00002420C3EFFFF80008000800080008000F3
:1051B0008000FFFF000001800180FFFFFFFF0180F2
:1051C000018000000000014001800180FF7FFF1F7F
:1051D00001000000FFFF00038004400820101020A1
:1051E0000C400380FFFF0080008000800080008072
:1051F00000800080FFFF3800C001000E000EC001DB
:105200003800FFFFFFFF0C003000C0000003000C5F
:105210000030FFFFF83F02400180018001800180E3
:105220000240F83FFFFF01010101010101010101FD
:1052300082007C00FC3F024001800180018001A0CF
:105240000240FCBFFFFF010101010103010D01311B
:1052500082607C803C20424081808180818081808E
:105260000241043E010001000100FFFFFFFF0100B9
:1052700001000100FF3F00400080008000800080AE
:105280000040FF3F0F00F000000F00F000F0000FA3
:10529000F0000F00FF0300FCE0031F001F00E0030D
:1052A00000FCFF0303C00C30300CC003C003300C03
:1052B0000C3003C007003800C00100FE00FEC00132
:1052C0003800070001C001B0018C0183C18031802A
:1052D0000D80038000000000FFFF0180018001803D
:1052E0000000000003000C003000C0000003000CB0
:1052F000003000C000000000018001800180FFFF3D
:1053000000000000000030000C00030003000C004F
:10531000300000000080008000800080008000805D
:10532000008000800000000001000300060004006F
:105330000000000000388044408240824082804467
:10534000007F0080FFFF80404080408040804080A0
:105350008040003F003F804040804080408040804F
:1053600080400033003F804040804080408040804B
:105370008040FFFF003F8040408840884088408850
:105380008088004740004000FCFF4200410041008F
:1053900041004100FC200241018201820182018220
:1053A0000241FF3FFFFF80004000400040004000FE
:1053B000800000FF000000000000C0FEC0FE0000F2
:1053C00000000000000008000880FB7FFB3F000099
:1053D00000000000FFFF000200050009801080208F
:1053E00040404080000001000300FE3F004000807C
:1053F00000800000400080FF4000400080FF40002F
:10540000400080FF400080FF8000400040004000DE
:10541000800080FF003F804040804080408040808E
:105420008040003F400080FF800440084008400862
:105430008004000300038004400840084008800402
:1054400080FF4000400080FF80004000400040009E
:105450004000800000218042408440844084408499
:105460008048003140004000F83F4040408040808C
:1054700040004000C03F004000800080008000806D
:105480000040C0BFC0000007003800C000C00038A6
:105490000007C000C00F00F0000EC001C001000EE8
:1054A00000F0C00F408080400033000C000C00333F
:1054B00080404080C0230044008800880088008825
:1054C0000044C03F408040A04090408840844082DB
:1054D0004081C0800000000080017E7E018001804C
:1054E00000000000000000000000FFFFFFFF0000C0
:1054F0000000000000000000018001807E7E80012D
:105500000000000080004000400080000001000218
:10551000000200010000000004000000080000007C
:10552000000C01400800140008000000000C0140BD
:105530001000140008000000000C014000201000C2
:1055400008000000000C01400010100008000000DE
:10555000000C01400040100008000000000C014059
:105560000080100004000000000801400100040059
:1055700004000000000801400200040004000000D4
:10558000000801400001180004000000000801406C
:105590000008180008000000000C0140000418007A
:1055A00008000000000C01400008040000C20100D7
:1055B0000000000000000C0000000000400000009F
:1055C000400000000000000000000000000000009B
:1055D00000000000000000000000000000000000CB
:1055E0002100000004000000000000000000000096
:1055F00000000000000000000000000000000000AB
:105600000000000000000000000000002100000079
:1056100004000000000000000000000080004000C6
:1056200080004000000000000000000000000000BA
:105630000000000000000000000000000100000069
:10564000555555555555C53F7D6FEB0312D6D4BF03
:105650005544880E55C1C93F3B8F68B52882A4BF09
:1056600088B20175E0EF493F09F7FD0DE13D023FCA
:105670004B2D8A1C273A03C0C88A599CE52A004052
:1056800059018D1B6C06E6BF82922EB1C5B8B33F9F
:105690004FBB610567ACDD3F182D4454FB21E93F4A
:1056A0009BF681D20B73EF3F182D4454FB21F93F39
:1056B000E2652F227F2B7A3C075C143326A6813CBF
:1056C000BDCBF07A8807703C075C143326A6913C6A
:1056D000C4EB98999999C9BF711623FEC671BCBFD6
:1056E0006D9A74AFF2B0B3BF9AFDDE522DDEADBF3E
:1056F0002F6C6A2C44B4A2BF0D5555555555D53F56
:10570000FF8300922449C23F6E204CC5CD45B73F70
:10571000513DD0A0660DB13FEB0D76244B7BA93FE8
:1057200011DA22E33AAD903F000000000000F03FA4
:10573000000000000000F83F000000000000000032
:105740000000004003B8E23F00000000000000003D
:1057500006D0CF43EBFD4C3E033333333333E33FCB
:10576000FFAB6FDBB66DDB3F4D268F515555D53FF7
:1057700001411DA96074D13F65DBC9934A86CD3FC5
:10578000EF4E454A287ECA3F3E5555555555C53FB3
:1057900093BDBE166CC166BF2CDE25AF6A56113FA5
:1057A000F16BD2C541BDBBBED0A4BE726937663EA7
:1057B0000000000000000000D85700080000002092
:1057C0009C00000028010008745800089C0000207C
:1057D0007C440000440100080000000001020304B2
:1057E000010203040607080902040608000000007D
:1057F00000000000000000000000000000000000A9
:105800000000000000000000000000000000000098
:105810000000000000000000000000000000000088
:105820000000000000000000000000000000000078
:105830000000803F00000000000000000000803FEA
:105840000000000000000000000000000000000058
:105850000000000000000000000000000000000048
:105860000000000000000000000000000000000038
:045870000000000034
:04000005080000ED02
:00000001FF
